:020000040000FA
:020000000528D1
:040002000034003492
:0800080035288316031388015B
:1000100083120313880183120313B201321483166F
:100020000317890183160313003081000330860013
:100030000330950002309600831203138B01831264
:1000400003138C018312031390308B008316031368
:1000500062308C002B2883120313A71B30202B281F
:100060007720A7138B100B160800F000030EF10089
:10007000831203138B183D285A28831203138B1005
:100080000B12831203130130B20683120313A71756
:1000900083120313321C53280810081527109816D2
:1000A0000030A4005A28081408112714FF30A400B7
:1000B00098125A28710E8300F00E700E09000A3053
:1000C000A0006520A00B612808006430A1006B200F
:1000D000A10B67280800FA30A20000000000A20B64
:1000E0006D2808001330B500B50B74280800C8301F
:1000F000A1003230A00000000000A00B7B28A10B63
:040100007928080052
:02400E00E123AC
:02401000FF3F70
:00000001FF
