:020000040000FA
:020000000528D1
:040002000034003492
:080008008C2883160313243039
:100010009800673099009A01880183120313803099
:100020009800A601A901A8012130AA008316031790
:1000300048308700831603130711831203130C3013
:1000400097003F308316031392008312031304308A
:100050009200F82083120313FF30A40027148316A4
:100060000313013085008801831203133214B00199
:10007000B101831603170130880083120313860130
:1000800088018316031380309F00831203134130CD
:100090009F000B219F14B114831603178901831647
:1000A00003130030810003308600033095000230D6
:1000B0009600831203130B108B10831203138C0111
:1000C00083120313D8308B008316031362308C0025
:1000D00083120313A71B0421A713831203130C1EFF
:1000E00068287D2083120313311C6828B1100B216E
:1000F000831203139F14B1146828831203132A0870
:100100009900892029089900892028089900F82059
:1001100008000C1E89280800F000030EF1008B185F
:100120009A280B18AF288C1ABA288C18CB280C1BCD
:10013000E128F3288B1083120313A7170130B206AE
:10014000321CA8280810081527109816FF30A400A4
:10015000081408112714FF30A4009812F3280B107C
:100160000230B006300888003018B728F3284D3028
:10017000A400F328831203131A08AB00CC3C031D20
:10018000F328C328F32883120313A600260883123A
:100190000313A400F32883120313271CD628240872
:1001A000A5009500971217128C10F3282408A500BB
:1001B0000310A50CA50C25089500971217128C109A
:1001C000F3280C139F10831203131E08B400A90018
:1001D000831603131E0883120313B300A800F0282C
:1001E000B1103114F328710E8300F00E700E090067
:1001F0000A30A000FE20A00BFA2808006430A100FD
:100200000421A10B00290800FA30A2000000000020
:10021000A20B062908001330B500B50B0D29080004
:02400E00E123AC
:02401000FF3F70
:00000001FF
