:020000040000FA
:020000000528D1
:040002000034003492
:080008008E2883160313243037
:100010009800673099009A01880183120313803099
:100020009800A601A901A8012130AA008316031790
:1000300048308700831603130711831203130C3013
:1000400097003F308316031392008312031304308A
:100050009200022183120313FF30A4002714831699
:100060000313013085008801831203133214B00199
:10007000B101831603170130880083120313860130
:1000800088018316031380309F00831203134130CD
:100090009F0015219F14B11483160317890183163D
:1000A00003130030810003308600033095000230D6
:1000B0009600831203130B108B10831203138C0111
:1000C00083120313D8308B008316031362308C0025
:1000D00083120313A71B7A20831203130C1A7F20A9
:1000E000831203133118B1101521831203139F14C7
:1000F000B11468281A21A7138B100B16080083125D
:1001000003132A0899008B20290899008B202808BE
:100110009900022108000C1E8B280800F000030E35
:10012000F1008B189C280B18B9288C1AC4288C183D
:10013000D5280C1BEB28FD28831203138B100B1200
:10014000831203130130B20683120313A71783121D
:100150000313321CB228081008152710181619307E
:10016000A400FD28081408112714FF30A400181259
:10017000FD280B100230B006300888003018C12866
:10018000FD284D30A400FD28831203131A08AB008C
:10019000CC3C031DFD28CD28FD2883120313A600A7
:1001A000260883120313A400FD2883120313271CBF
:1001B000E0282408A5009500971217128C10FD283E
:1001C0002408A5000310A50CA50C2508950097127E
:1001D00017128C10FD280C139F10831203131E0896
:1001E000B400A900831603131E0883120313B3007F
:1001F000A800FA28B1103114FD28710E8300F00E0A
:10020000700E09000A30A0000821A00B0429080084
:100210006430A1000E21A10B0A290800FA30A200C7
:1002200000000000A20B102908001330B500B50B28
:1002300017290800C830A1003230A00000000000DB
:0A024000A00B1E29A10B1C290800C9
:02400E00E123AC
:02401000FF3F70
:00000001FF
