:020000040000FA
:020000000528D1
:040002000034003492
:080008002228831603132430A3
:100010009800673099009A01880183120313903089
:100020009800880183160317483087008312031352
:10003000C0308B00831203138C01831603133030FE
:100040008C002128F000030EF1000C1A2A288C1ACB
:100050002F28352883120313413099003528831245
:1000600003131A08A00008143528710E8300F00E3F
:10007000700E09000230A6000000A60B4028080000
:10008000FA30A7000000A70B46283C28FA30A80049
:080090000000A80B48284228DB
:02400E00E123AC
:02401000FF3F70
:00000001FF
