:020000040000FA
:020000000528D1
:040002000034003492
:080008002228880189018316FA
:1000100003130711831203130C3097004230831629
:100020000313920083120313043092002F208312D3
:1000300003138C10831603138C14F0308B001E30C6
:10004000A3002128F000030EF1008C1827282308B4
:10005000831203139500971217128C1042280A304E
:10006000A0003520A00B312808006430A1003B20FF
:10007000A10B37280800FA30A20000000000A20BF4
:0E0080003D280800710E8300F00E700E09007E
:02400E00E123AC
:02401000FF3F70
:00000001FF
