:020000040000FA
:020000000528D1
:040002000034003492
:08000800842883160313243041
:100010009800673099009A01880183120313803099
:100020009800A601A901A8012130AA008316031790
:1000300048308700831603130711831203130C3013
:1000400097003F3083160313920083120313063088
:1000500092000121831203130030A4002714831699
:100060000313013085008801831203133214B00199
:100070003014B10183160317013088008312031373
:10008000860188018316031380309F0083120313B7
:1000900041309F0014219F14B11483160317890166
:1000A000831603130030810003308600033095006F
:1000B00002309600831203130B108B10831203136C
:1000C0008C0183120313D8308B0083160313623024
:1000D0008C0083120313A71B7020271B752069282F
:1000E0001921A7138B100B16080019218312031373
:1000F0000608831203132713831203130B108B15A7
:1001000008000C1E81280800F000030EF1008B1877
:1001100090280B18AD288C1ACB288C18D628FC28D0
:10012000831203138B100B12831203130130B206D8
:1001300083120313A71783120313321CA628081077
:100140000815271018164D30A400FC2808140811B3
:1001500027140030A4001812FC2883120313060889
:10016000831203130B108B11861CFC2883120313BC
:100170002717831203130130B006301CC3288312E3
:1001800003138810FC28831203134D30A40083123C
:1001900003138814FC28831203131A088312031311
:1001A000A600260883120313A400FC28831203135D
:1001B000181283120313271CE828A4002408FF3C0C
:1001C000A5009500971217128C10A7121816FC287C
:1001D000831203132408FF3CA5000310A50CA50CF3
:1001E0002508831203139500971217128C10A7127B
:1001F000831203131816FC28710E8300F00E700E84
:1002000009000A30A0000721A00B03290800643070
:10021000A1000D21A10B09290800FA30A20000005D
:100220000000A20B0F2908001330B500B50B1629EA
:100230000800C830A1003230A00000000000A00B70
:080240001D29A10B1B29080078
:02400E00E123AC
:02401000FF3F70
:00000001FF
