:020000040000FA
:020000000528D1
:040002000034003492
:080008006F2883160313243056
:100010009800673099009A01880183120313803099
:100020009800A601A901A8012130AA008316031790
:1000300048308700831603130711831203130C3013
:1000400097003F3083160313920083120313063088
:100050009200212183120313A4018312031395013B
:1000600083120313271483160317890183120313C2
:10007000B20132148316031300308100033086006E
:100080000330950002309600831203130B108B107F
:10009000831203138C0183120313D8308B00831651
:1000A000031362308C0083120313880157288312D4
:1000B0000313A71B5E20271B632057282121A713AA
:1000C0008B100B16080021218312031306088312DC
:1000D00003132713831203130B108B150800F00072
:1000E000030EF1008B1879288C1AC5288C18D62895
:1000F0000429831203138B118B100B128312031329
:100100000130B20683120313A71783120313321CA4
:10011000992808100815831203132710831203135C
:100120008B15831203134D30A4008312031318168A
:1001300004298312031308140811831203138B1567
:100140008312031327148312031318120429831232
:1001500003130608831203130B108B11861C04294A
:10016000831203132717831203130130B006301CC8
:10017000BD2883120313881004298312031300304F
:10018000A400831203138814042983120313181282
:10019000831203131A0883120313A600260883127E
:1001A0000313A400831203131816042983120313E4
:1001B000181283120313271CEB2883120313FF303A
:1001C000831203139500971217128C10A712831233
:1001D000031318160429831203131812831203132E
:1001E0002408FF3C83120313A5000310A50CA50CE3
:1001F0002508831203139500971217128C10A7126B
:100200008312031318160429710E8300F00E700E6A
:1002100009000A30A0000F21A00B0B290800643050
:10022000A1001521A10B11290800FA30A20000003D
:100230000000A20B172908001330B500B50B1E29CA
:100240000800C830A1003230A00000000000A00B60
:080250002529A10B2329080058
:02400E00E123AC
:02401000FF3F70
:00000001FF
