:020000040000FA
:020000000528D1
:040002000034003492
:080008005F2883160313243066
:100010009800673099009A01880183120313903089
:100020009800A601A901A8012130AA008316031790
:1000300048308700831203130C3097003F3083163B
:10004000031392008312031304309200B32083122F
:1000500003139501831603130130850088013214C0
:10006000B001B10183160317013088008312031316
:10007000860188018316031330309F008312031317
:1000800041309F0083160317890183160313003044
:100090008100033086000330950002309600831201
:1000A00003130B108B10831203138C0183120313A1
:1000B000D8308B008316031362308C005E28F0006A
:1000C000030EF1008B186D280B1879288C1A8428E0
:1000D0008C1895280C1BA228AE288B100130B20674
:1000E0003208880032187528AE2818120030A40093
:1000F000AE280B100230B006300888003018812876
:10010000AE284D30A400AE28831203131A08AB00AA
:10011000CC3C031DAE288D28AE2883120313A60005
:10012000260883120313A400AE28831203132408A5
:10013000A5000310A50CA50C250895009712171211
:100140008C10AE280C139F10831203131E08B400EA
:100150001E08B300AB28B1103114AE28710E830015
:10016000F00E700E09000A30A000B920A00BB528CF
:1001700008006430A100BF20A10BBB280800FA30A2
:10018000A20000000000A20BC12808001330B50037
:06019000B50BC8280800B1
:02400E00E123AC
:02401000FF3F70
:00000001FF
