:020000040000FA
:020000000528D1
:040002000034003492
:08000800A12883160313243024
:100010009800673099009A01880183120313803099
:100020009800A601A901A8012130AA008316031790
:1000300048308700831603130711831203130C3013
:1000400097003F3083160313920083120313063088
:1000500092003D21831203130030A400271483165D
:100060000313013085008801831203133214B00199
:100070003014B10183160317013088008312031373
:10008000860188018316031380309F0083120313B7
:1000900041309F0038219F14B11483160317890142
:1000A000831603130030810003308600033095006F
:1000B00002309600831203130B108B10831203136C
:1000C0008C0183120313D8308B0083160313623024
:1000D0008C008312031388016D2883120313A71B5E
:1000E0008120271B8620831203130C1A922083126F
:1000F00003133118B1103821831203139F14B11464
:100100006D284821A7138B100B1608004821831275
:1001100003130608831203132713831203130B1010
:100120008B150800831203132A0899009E202908C2
:1001300099009E2028089900252108000C1E9E2861
:100140000800F000030EF1008C1AF8288C18012921
:100150008B18AF280B18D4280C1B0E2920298312CA
:1001600003138B100B12831203130130B206831298
:100170000313A71783120313321CC728081008158E
:1001800027102F30A400831203131816202983127E
:100190000313181283120313081408118312031394
:1001A00027140030A40020298312031306088312A9
:1001B00003130B108B11861C20298312031327179E
:1001C000831203130130B006301CEA288312031394
:1001D0008810202983120313181283120313063088
:1001E000A400831203138814831203131816202902
:1001F000831203131A083F39A40083120313A716AE
:1002000020298312031324088312031395009712E5
:1002100017128C1083120313A71220290C139F109E
:10022000831203131E08B400A900831603131E08CB
:1002300083120313B300A8001D29B1103114202923
:10024000710E8300F00E700E09000A30A0002B2101
:10025000A00B272908006430A1003121A10B2D2912
:100260000800FA30A20000000000A20B33290800A9
:100270001330B500B50B3A290800C830A100323060
:10028000A00000000000A00B4129A10B3F2908009D
:100290006430A1006430A00000000000A00B4C29D5
:0602A000A10B4A29080031
:02400E00E123AC
:02401000FF3F70
:00000001FF
