:020000040000FA
:020000000528D1
:040002000034003492
:080008006F2883160313243056
:100010009800673099009A01880183120313803099
:100020009800A601A901A8012130AA008316031790
:1000300048308700831603130711831203130C3013
:1000400097003F3083160313920083120313063088
:100050009200242183120313A40183120313950138
:1000600083120313271483160317890183120313C2
:10007000B20132148316031300308100033086006E
:100080000330950002309600831203130B108B107F
:10009000831203138C0183120313D8308B00831651
:1000A000031362308C0083120313880157288312D4
:1000B0000313A71B5E20271B632057282F21A7139C
:1000C0008B100B1608002F218312031306088312CE
:1000D00003132713831203130B108B150800F00072
:1000E000030EF1008C1AC8288C18DC288B187B288A
:1000F0000B18AA280729831203138B118B100B12DC
:10010000831203130130B20683120313A71783125D
:100110000313321C9B2808100815831203132710A1
:10012000831203138B15831203134D30A400831223
:1001300003131816072983120313081488100811D3
:10014000831203138B1583120313271483120313D3
:1001500018120729831203130608831203130B10C6
:100160008B11861C0729831203132717831203138D
:100170000130B006301CC0288312031388100729F1
:10018000831203131930A400831203138814072960
:10019000831603138C10831203131A08831203139C
:1001A000A600260883120313A40083120313A716C4
:1001B000831603138C14072983120313271CEB28BF
:1001C00083120313FF308312031395009712171243
:1001D0008C10A71207298312031326088312031316
:1001E000A71AA400831203132408FF3C83120313ED
:1001F000A5000310A50CA50C250883120313950078
:10020000971217128C1083120313A7120729710E6D
:100210008300F00E700E09000A30A0001221A00B1E
:100220000E2908006430A1001821A10B1429080030
:10023000FA30A20000000000A20B1A2908001330B7
:10024000B500B50B21290800C830A1003230A0004C
:1002500000000000A00B2829A10B2629080064300B
:10026000A1006430A00000000000A00B3329A10B06
:040270003129080028
:02400E00E123AC
:02401000FF3F70
:00000001FF
