:020000040000FA
:020000000528D1
:040002000034003492
:080008009D2883160313243028
:100010009800673099009A01880183120313803099
:100020009800A601A901A8012130AA008316031790
:1000300048308700831603130711831203130C3013
:1000400097003F3083160313920083120313063088
:1000500092004421831203130030A4002714831656
:100060000313013085008801831203133214B00199
:100070003014B10183160317013088008312031373
:10008000860188018316031380309F0083120313B7
:1000900041309F0057219F14B11483160317890123
:1000A000831603130030810003308600033095006F
:1000B00002309600831203130B108B10831203136C
:1000C0008C0183120313D8308B0083160313623024
:1000D0008C0083120313A71B7D20271B8220831211
:1000E00003130C1A8E20831203133118B1105721F9
:1000F000831203139F14B11469285C21A7138B107A
:100100000B1608005C2183120313060883120313E5
:100110002713831203130B108B150800831203138C
:100120002A0899009A20290899009A2028089900FD
:10013000442108000C1E9A280800F000030EF1006C
:100140008C1807298C1AF4288B18AB280B18D02888
:100150000C1B2D293F29831203138B100B128312C2
:1001600003130130B20683120313A717831203137C
:10017000321CC3280810081527101930A400831258
:10018000031318163F298312031318128312031343
:10019000081408118312031327140030A4003F2908
:1001A000831203130608831203130B108B11861C92
:1001B0003F29831203132717831203130130B0065C
:1001C000301CE6288312031388103F29831203137F
:1001D0001812831203134D30A400831203138814E2
:1001E0008312031318163F29831203131A0883126C
:1001F0000313A600260883120313A4003F298312C9
:100200000313A600260883120313A4003F298312B8
:100210000313181283120313271C1929A40024089E
:10022000FF3CA5009500971217128C10A712181604
:100230003F29831203132408FF3CA5000310A50CDB
:10024000A50C2508831203139500971217128C1022
:10025000A7128312031318163F290C139F10831241
:1002600003131E08B400A900831603131E0883128B
:100270000313B300A8003C29B11031143F29710EBB
:100280008300F00E700E09000A30A0004A21A00B76
:10029000462908006430A1005021A10B4C29080018
:1002A000FA30A20000000000A20B5229080013300F
:1002B000B500B50B59290800C830A1003230A000A4
:0E02C00000000000A00B6029A10B5E290800C1
:02400E00E123AC
:02401000FF3F70
:00000001FF
