:020000040000FA
:020000000528D1
:040002000034003492
:080008007E2883160313243047
:100010009800673099009A01880183120313903089
:100020009800A601A901A8012130AA008316031790
:1000300048308700831603130711831203130C3013
:1000400097003F308316031392008312031304308A
:100050009200D82083120313FF30A40083160313E9
:100060000130850088013214B001B10183160317F5
:10007000013088008312031386018801831603135D
:1000800080309F008312031341309F00EB209F14A8
:10009000A714831603178901831603130030810008
:1000A000033086000330950002309600831203135C
:1000B0000B108B10831203138C0183120313D8309F
:1000C0008B008316031362308C00831203130C1E03
:1000D0006528831203132A0899007B2029089900B8
:1000E0007B2028089900D820311C6528B110EB200E
:1000F0009F14B11465280C1E7B280800F000030E25
:10010000F1008B188C280B1898288C1AA3288C18AF
:10011000B4280C1BC128D3288B100130B20632083A
:10012000880032189428D32818120030A400D3284D
:100130000B100230B006300888003018A028D328F1
:100140004D30A400D328831203131A08AB00CC3C13
:10015000031DD328AC28D32883120313A600260836
:1001600083120313A400D328831203132408A500C9
:100170000310A50CA50C25089500971217128C10DA
:10018000D3280C139F10831203131E08B400A90078
:10019000831603131E0883120313B300A800D0288C
:1001A000B1103114D328710E8300F00E700E0900C7
:1001B0000A30A000DE20A00BDA2808006430A1007D
:1001C000E420A10BE0280800FA30A20000000000A3
:1001D000A20BE62808001330B500B50BED28080087
:02400E00E123AC
:02401000FF3F70
:00000001FF
