:020000040000FA
:020000000528D1
:040002000034003492
:080008002528880189018316F7
:1000100003130711831203130C3097003F3083162C
:1000200003139200831203130430920034208312CE
:1000300003138C10831603138C1483120313C03024
:100040008B001430A30034202128F000030EF100AF
:100050008C182A282308230C230C831203139500E1
:10006000971217128C104C280A30A0003A20A00BCF
:10007000362808006430A1004020A10B3C2808006D
:10008000FA30A20000000000A20B422808008530D0
:10009000A400A40B49280800710E8300F00E700E16
:0200A000090055
:02400E00E123AC
:02401000FF3F70
:00000001FF
