:020000040000FA
:020000000528D1
:040002000034003492
:080008003D2883160313243088
:100010009800673099009A01880183120313903089
:1000200098008801A0014130A3003030A20083165F
:1000300003174830870083120313C0308B008312EC
:1000400003138C018316031320308C0083120313D7
:100050000C1E2628831203132208990023089900F6
:100060004F20A11C26280810A20AA30A22089900E2
:1000700023089900A1104F202628F000030EF1005C
:100080008C1A43284A28831203131A08A000A114CB
:1000900008144A28710E8300F00E700E0900053016
:1000A000A6000000A60B55280800FA30A7000000A3
:1000B000A70B5B285128FA30A8000000A80B5D2888
:0200C0005728BF
:02400E00E123AC
:02401000FF3F70
:00000001FF
