:020000040000FA
:020000000528D1
:040002000034003492
:080008007E2883160313243047
:100010009800673099009A01880183120313903089
:100020009800A601A901A8012130AA008316031790
:1000300048308700831603130711831203130C3013
:1000400097003F308316031392008312031304308A
:100050009200D42083120313FF30A40083160313ED
:100060000130850088013214B001B10183160317F5
:10007000013088008312031386018801831603135D
:1000800000309F008312031341309F00E7209F142C
:10009000A714831603178901831603130030810008
:1000A000033086000330950002309600831203135C
:1000B0000B108B10831203138C0183120313D8309F
:1000C0008B008316031362308C00831203130C1E03
:1000D0006528831203132A0899007B2029089900B8
:1000E0007B2028089900D420311C6528B110E72016
:1000F0009F14B11465280C1E7B280800F000030E25
:10010000F1008B188C280B1898288C1AA3288C18AF
:10011000B4280C1BC128CF288B100130B20632083E
:10012000880032189428CF2818120030A400CF2855
:100130000B100230B006300888003018A028CF28F5
:100140004D30A400CF28831203131A08AB00CC3C17
:10015000031DCF28AC28CF2883120313A60026083E
:1001600083120313A400CF28831203132408A500CD
:100170000310A50CA50C25089500971217128C10DA
:10018000CF280C139F10831203131E08B400A9007C
:100190001E08B300A800CC28B1103114CF28710E6E
:1001A0008300F00E700E09000A30A000DA20A00BC8
:1001B000D62808006430A100E020A10BDC2808004C
:1001C000FA30A20000000000A20BE2280800133061
:0801D000B500B50BE928080099
:02400E00E123AC
:02401000FF3F70
:00000001FF
