:020000040000FA
:020000000528D1
:040002000034003492
:080008009D2883160313243028
:100010009800673099009A01880183120313803099
:100020009800A601A901A8012130AA008316031790
:1000300048308700831603130711831203130C3013
:1000400097003F308316031392008312031304308A
:1000500092001321831203130030A4002714831687
:100060000313013085008801831203133214B00199
:100070003014B10183160317013088008312031373
:10008000860188018316031380309F0083120313B7
:1000900041309F0026219F14B11483160317890154
:1000A000831603130030810003308600033095006F
:1000B00002309600831203130B108B10831203136C
:1000C0008C0183120313D8308B0083160313623024
:1000D0008C0083120313A71B7D20271B8220831211
:1000E00003130C1A8E20831203133118B11026212A
:1000F000831203139F14B11469282B21A7138B10AB
:100100000B1608002B218312031306088312031316
:100110002713831203130B108B150800831203138C
:100120002A0899009A20290899009A2028089900FD
:10013000132108000C1E9A280800F000030EF1009D
:100140008B18A9280B18C6288C1AE4288C18F628B6
:100150000E29831203138B100B1283120313013029
:10016000B20683120313A71783120313321CBF288E
:1001700008100815271018164D30A4000E29081471
:10018000081127140030A40018120E29831203133B
:100190000608831203130B108B11861C0E29831281
:1001A00003132717831203130130B006301CDC2819
:1001B0008312031388100E29831203134D30A400F9
:1001C0008312031388140E29831203131A08AB0039
:1001D000CC3C031D0E29ED280E29831203131A08A7
:1001E000A600260883120313A4000E29831203130A
:1001F000271C02292408FF3CA5009500971217121E
:100200008C100E292408FF3CA5000310A50CA50C9A
:1002100025089500971217128C100E29710E830075
:10022000F00E700E09000A30A0001921A00B15294C
:1002300008006430A1001F21A10B1B290800FA301F
:10024000A20000000000A20B212908001330B50015
:10025000B50B28290800C830A1003230A0000000EA
:0C0260000000A00B2F29A10B2D29080085
:02400E00E123AC
:02401000FF3F70
:00000001FF
