:020000040000FA
:020000000528D1
:040002000034003492
:080008002D2883160313243098
:100010009800673099009A01880183120313903089
:10002000980088014130A0008316031748308700EC
:1000300083120313C0308B00831203138C018316C9
:10004000031320308C00831203130C1E2328831209
:100050000313A00899003E202328F000030EF100AE
:100060008C1A33283928831203131A08A0000814A5
:100070003928710E8300F00E700E09000530A600BD
:100080000000A60B44280800FA30A7000000A70BC8
:100090004A284028FA30A8000000A80B4C2846281F
:02400E00E123AC
:02401000FF3F70
:00000001FF
