:020000040000FA
:020000000528D1
:040002000034003492
:080008002F28880189018316ED
:1000100003130711A501831203130C3097003F301F
:1000200083160313920083120313043092004120BD
:10003000831203138C10831603138C14831203137F
:10004000C0308B00FF30A30041208030A30041204E
:100050004030A30041201430A30041202228F000AA
:10006000030EF1008C183428831203132308A50013
:100070000310A50CA50C25089500971217128C10DB
:1000800059280A30A0004720A00B432808006430FC
:10009000A1004D20A10B49280800FA30A200000061
:1000A0000000A20B4F2808008530A400A40B56289E
:0C00B0000800710E8300F00E700E0900B5
:02400E00E123AC
:02401000FF3F70
:00000001FF
