:020000040000FA
:020000000528D1
:040002000034003492
:080008008E2883160313243037
:100010009800673099009A01880183120313803099
:100020009800A601A901A8012130AA008316031790
:1000300048308700831603130711831203130C3013
:1000400097003F308316031392008312031304308A
:1000500092000421831203130030A4002714831696
:100060000313013085008801831203133214B00199
:10007000B101831603170130880083120313860130
:1000800088018316031380309F00831203134130CD
:100090009F0017219F14B11483160317890183163B
:1000A00003130030810003308600033095000230D6
:1000B0009600831203130B108B10831203138C0111
:1000C00083120313D8308B008316031362308C0025
:1000D00083120313A71B7A20831203130C1A7F20A9
:1000E000831203133118B1101721831203139F14C5
:1000F000B11468281C21A7138B100B16080083125B
:1001000003132A0899008B20290899008B202808BE
:100110009900042108000C1E8B280800F000030E33
:10012000F1008B189C280B18B9288C1AC4288C183D
:10013000D5280C1BED28FF28831203138B100B12FC
:10014000831203130130B20683120313A71783121D
:100150000313321CB228081008152710181619307E
:10016000A400FF280814081127140030A400181256
:10017000FF280B100230B006300888003018C12864
:10018000FF284D30A400FF28831203131A08AB0088
:10019000CC3C031DFF28CD28FF2883120313A600A3
:1001A000260883120313A400FF2883120313271CBD
:1001B000E1282408FF3CA5009500971217128C1027
:1001C000FF282408FF3CA5000310A50CA50C25085A
:1001D0009500971217128C10FF280C139F10831292
:1001E00003131E08B400A900831603131E0883120C
:1001F0000313B300A800FC28B1103114FF28710EBE
:100200008300F00E700E09000A30A0000A21A00B36
:10021000062908006430A1001021A10B0C29080058
:10022000FA30A20000000000A20B122908001330CF
:10023000B500B50B19290800C830A1003230A00064
:0E02400000000000A00B2029A10B1E290800C1
:02400E00E123AC
:02401000FF3F70
:00000001FF
