:020000040000FA
:020000000528D1
:040002000034003492
:080008009D2883160313243028
:100010009800673099009A01880183120313803099
:100020009800A601A901A8012130AA008316031790
:1000300048308700831603130711831203130C3013
:1000400097003F308316031392008312031304308A
:1000500092002621831203130030A4002714831674
:100060000313013085008801831203133214B00199
:100070003014B10183160317013088008312031373
:10008000860188018316031380309F0083120313B7
:1000900041309F0039219F14B11483160317890141
:1000A000831603130030810003308600033095006F
:1000B00002309600831203130B108B10831203136C
:1000C0008C0183120313D8308B0083160313623024
:1000D0008C0083120313A71B7D20271B8220831211
:1000E00003130C1A8E20831203133118B110392117
:1000F000831203139F14B11469283E21A7138B1098
:100100000B1608003E218312031306088312031303
:100110002713831203130B108B150800831203138C
:100120002A0899009A20290899009A2028089900FD
:10013000262108000C1E9A280800F000030EF1008A
:100140008B18AB280B18C8288C1AE6288C18F728AF
:100150000C1B0F292129831203138B100B128312FE
:1001600003130130B20683120313A717831203137C
:10017000321CC12808100815271018161930A400C1
:1001800021290814081127140030A400181221296D
:10019000831203130608831203130B108B11861CA2
:1001A0002129831203132717831203130130B0068A
:1001B000301CDE28831203138810212983120313B5
:1001C0004D30A400831203138814212983120313D2
:1001D0001A08AB00CC3C031D2129EF2821298312EA
:1001E0000313A600260883120313A40021298312F7
:1001F0000313271C03292408FF3CA5009500971230
:1002000017128C1021292408FF3CA5000310A50C0F
:10021000A50C25089500971217128C1021290C1394
:100220009F10831203131E08B400A9008316031342
:100230001E0883120313B300A8001E29B110311445
:100240002129710E8300F00E700E09000A30A00003
:100250002C21A00B282908006430A1003221A10B19
:100260002E290800FA30A20000000000A20B342959
:1002700008001330B500B50B3B290800C830A100B9
:100280003230A00000000000A00B4229A10B402941
:02029000080064
:02400E00E123AC
:02401000FF3F70
:00000001FF
